{
  "_format": "hh-sol-artifact-1",
  "contractName": "Charity",
  "sourceName": "contracts/Charity.sol",
  "abi": [
    {
      "inputs": [],
      "stateMutability": "nonpayable",
      "type": "constructor"
    },
    {
      "anonymous": false,
      "inputs": [
        {
          "indexed": false,
          "internalType": "uint256",
          "name": "campaignId",
          "type": "uint256"
        },
        {
          "indexed": false,
          "internalType": "address",
          "name": "initiator",
          "type": "address"
        }
      ],
      "name": "CampaignStarted",
      "type": "event"
    },
    {
      "anonymous": false,
      "inputs": [
        {
          "indexed": false,
          "internalType": "bytes32",
          "name": "campaignId",
          "type": "bytes32"
        },
        {
          "indexed": false,
          "internalType": "address",
          "name": "donor",
          "type": "address"
        },
        {
          "indexed": false,
          "internalType": "uint256",
          "name": "amount",
          "type": "uint256"
        }
      ],
      "name": "FundsDonated",
      "type": "event"
    },
    {
      "anonymous": false,
      "inputs": [
        {
          "indexed": false,
          "internalType": "bytes32",
          "name": "campaignId",
          "type": "bytes32"
        },
        {
          "indexed": false,
          "internalType": "address",
          "name": "initiator",
          "type": "address"
        },
        {
          "indexed": false,
          "internalType": "uint256",
          "name": "amount",
          "type": "uint256"
        }
      ],
      "name": "WithdrawFunds",
      "type": "event"
    },
    {
      "inputs": [
        {
          "internalType": "bytes32",
          "name": "",
          "type": "bytes32"
        }
      ],
      "name": "_campaigns",
      "outputs": [
        {
          "internalType": "uint256",
          "name": "id",
          "type": "uint256"
        },
        {
          "internalType": "string",
          "name": "title",
          "type": "string"
        },
        {
          "internalType": "string",
          "name": "imgUrl",
          "type": "string"
        },
        {
          "internalType": "string",
          "name": "description",
          "type": "string"
        },
        {
          "internalType": "uint256",
          "name": "fundsRaised",
          "type": "uint256"
        },
        {
          "internalType": "bool",
          "name": "isLive",
          "type": "bool"
        },
        {
          "internalType": "address",
          "name": "initiator",
          "type": "address"
        },
        {
          "internalType": "uint256",
          "name": "deadline",
          "type": "uint256"
        },
        {
          "internalType": "uint256",
          "name": "balance",
          "type": "uint256"
        }
      ],
      "stateMutability": "view",
      "type": "function"
    },
    {
      "inputs": [
        {
          "internalType": "uint256",
          "name": "",
          "type": "uint256"
        }
      ],
      "name": "campaigns",
      "outputs": [
        {
          "internalType": "uint256",
          "name": "id",
          "type": "uint256"
        },
        {
          "internalType": "string",
          "name": "title",
          "type": "string"
        },
        {
          "internalType": "string",
          "name": "imgUrl",
          "type": "string"
        },
        {
          "internalType": "string",
          "name": "description",
          "type": "string"
        },
        {
          "internalType": "uint256",
          "name": "fundsRaised",
          "type": "uint256"
        },
        {
          "internalType": "bool",
          "name": "isLive",
          "type": "bool"
        },
        {
          "internalType": "address",
          "name": "initiator",
          "type": "address"
        },
        {
          "internalType": "uint256",
          "name": "deadline",
          "type": "uint256"
        },
        {
          "internalType": "uint256",
          "name": "balance",
          "type": "uint256"
        }
      ],
      "stateMutability": "view",
      "type": "function"
    },
    {
      "inputs": [
        {
          "internalType": "bytes32",
          "name": "campaignId",
          "type": "bytes32"
        }
      ],
      "name": "donateToCampaign",
      "outputs": [],
      "stateMutability": "payable",
      "type": "function"
    },
    {
      "inputs": [],
      "name": "endCampaign",
      "outputs": [],
      "stateMutability": "nonpayable",
      "type": "function"
    },
    {
      "inputs": [
        {
          "internalType": "address",
          "name": "initiator",
          "type": "address"
        },
        {
          "internalType": "string",
          "name": "title",
          "type": "string"
        },
        {
          "internalType": "string",
          "name": "description",
          "type": "string"
        }
      ],
      "name": "generateCampaignId",
      "outputs": [
        {
          "internalType": "bytes32",
          "name": "",
          "type": "bytes32"
        }
      ],
      "stateMutability": "pure",
      "type": "function"
    },
    {
      "inputs": [
        {
          "internalType": "uint256",
          "name": "campaignId",
          "type": "uint256"
        }
      ],
      "name": "getCampaign",
      "outputs": [
        {
          "components": [
            {
              "internalType": "uint256",
              "name": "id",
              "type": "uint256"
            },
            {
              "internalType": "string",
              "name": "title",
              "type": "string"
            },
            {
              "internalType": "string",
              "name": "imgUrl",
              "type": "string"
            },
            {
              "internalType": "string",
              "name": "description",
              "type": "string"
            },
            {
              "internalType": "uint256",
              "name": "fundsRaised",
              "type": "uint256"
            },
            {
              "internalType": "bool",
              "name": "isLive",
              "type": "bool"
            },
            {
              "internalType": "address",
              "name": "initiator",
              "type": "address"
            },
            {
              "internalType": "uint256",
              "name": "deadline",
              "type": "uint256"
            },
            {
              "internalType": "uint256",
              "name": "balance",
              "type": "uint256"
            }
          ],
          "internalType": "struct Charity.Campaign",
          "name": "",
          "type": "tuple"
        }
      ],
      "stateMutability": "view",
      "type": "function"
    },
    {
      "inputs": [],
      "name": "getCampaignCount",
      "outputs": [
        {
          "internalType": "uint256",
          "name": "",
          "type": "uint256"
        }
      ],
      "stateMutability": "view",
      "type": "function"
    },
    {
      "inputs": [
        {
          "internalType": "string",
          "name": "title",
          "type": "string"
        },
        {
          "internalType": "string",
          "name": "description",
          "type": "string"
        },
        {
          "internalType": "string",
          "name": "imgUrl",
          "type": "string"
        },
        {
          "internalType": "uint256",
          "name": "deadline",
          "type": "uint256"
        }
      ],
      "name": "startCampaign",
      "outputs": [],
      "stateMutability": "nonpayable",
      "type": "function"
    },
    {
      "inputs": [
        {
          "internalType": "uint256",
          "name": "a",
          "type": "uint256"
        },
        {
          "internalType": "uint256",
          "name": "b",
          "type": "uint256"
        }
      ],
      "name": "sumNumbers",
      "outputs": [
        {
          "internalType": "uint256",
          "name": "",
          "type": "uint256"
        }
      ],
      "stateMutability": "nonpayable",
      "type": "function"
    },
    {
      "inputs": [
        {
          "internalType": "address",
          "name": "",
          "type": "address"
        },
        {
          "internalType": "bytes32",
          "name": "",
          "type": "bytes32"
        }
      ],
      "name": "userCampaignDonations",
      "outputs": [
        {
          "internalType": "uint256",
          "name": "",
          "type": "uint256"
        }
      ],
      "stateMutability": "view",
      "type": "function"
    },
    {
      "inputs": [
        {
          "internalType": "bytes32",
          "name": "campaignId",
          "type": "bytes32"
        }
      ],
      "name": "withdrawCampaignFunds",
      "outputs": [],
      "stateMutability": "nonpayable",
      "type": "function"
    }
  ],
  "bytecode": "0x608060405234801561001057600080fd5b50611f31806100206000396000f3fe60806040526004361061009c5760003560e01c80636caa9218116100645780636caa9218146101ce57806371aac7f9146101f9578063840f35f314610210578063913afba51461024d57806397c9f7c814610276578063e13475c8146102b35761009c565b8063141961bc146100a15780631fe38673146100e65780632596d2df146101235780635598f8cc146101685780635faabc32146101a5575b600080fd5b3480156100ad57600080fd5b506100c860048036038101906100c3919061106d565b6102cf565b6040516100dd99989796959493929190611195565b60405180910390f35b3480156100f257600080fd5b5061010d60048036038101906101089190611237565b6104e2565b60405161011a9190611277565b60405180910390f35b34801561012f57600080fd5b5061014a600480360381019061014591906112c8565b6104f8565b60405161015f99989796959493929190611195565b60405180910390f35b34801561017457600080fd5b5061018f600480360381019061018a919061106d565b61070b565b60405161019c919061143f565b60405180910390f35b3480156101b157600080fd5b506101cc60048036038101906101c791906114c6565b610988565b005b3480156101da57600080fd5b506101e3610b54565b6040516101f09190611277565b60405180910390f35b34801561020557600080fd5b5061020e610b5d565b005b34801561021c57600080fd5b50610237600480360381019061023291906115bb565b610b5f565b6040516102449190611277565b60405180910390f35b34801561025957600080fd5b50610274600480360381019061026f91906112c8565b610b84565b005b34801561028257600080fd5b5061029d600480360381019061029891906115fb565b610dee565b6040516102aa919061169f565b60405180910390f35b6102cd60048036038101906102c891906112c8565b610e2f565b005b60036020528060005260406000206000915090508060000154908060010180546102f8906116e9565b80601f0160208091040260200160405190810160405280929190818152602001828054610324906116e9565b80156103715780601f1061034657610100808354040283529160200191610371565b820191906000526020600020905b81548152906001019060200180831161035457829003601f168201915b505050505090806002018054610386906116e9565b80601f01602080910402602001604051908101604052809291908181526020018280546103b2906116e9565b80156103ff5780601f106103d4576101008083540402835291602001916103ff565b820191906000526020600020905b8154815290600101906020018083116103e257829003601f168201915b505050505090806003018054610414906116e9565b80601f0160208091040260200160405190810160405280929190818152602001828054610440906116e9565b801561048d5780601f106104625761010080835404028352916020019161048d565b820191906000526020600020905b81548152906001019060200180831161047057829003601f168201915b5050505050908060040154908060050160009054906101000a900460ff16908060050160019054906101000a900473ffffffffffffffffffffffffffffffffffffffff16908060060154908060070154905089565b600081836104f09190611749565b905092915050565b6001602052806000526040600020600091509050806000015490806001018054610521906116e9565b80601f016020809104026020016040519081016040528092919081815260200182805461054d906116e9565b801561059a5780601f1061056f5761010080835404028352916020019161059a565b820191906000526020600020905b81548152906001019060200180831161057d57829003601f168201915b5050505050908060020180546105af906116e9565b80601f01602080910402602001604051908101604052809291908181526020018280546105db906116e9565b80156106285780601f106105fd57610100808354040283529160200191610628565b820191906000526020600020905b81548152906001019060200180831161060b57829003601f168201915b50505050509080600301805461063d906116e9565b80601f0160208091040260200160405190810160405280929190818152602001828054610669906116e9565b80156106b65780601f1061068b576101008083540402835291602001916106b6565b820191906000526020600020905b81548152906001019060200180831161069957829003601f168201915b5050505050908060040154908060050160009054906101000a900460ff16908060050160019054906101000a900473ffffffffffffffffffffffffffffffffffffffff16908060060154908060070154905089565b610713610fc9565b60036000838152602001908152602001600020604051806101200160405290816000820154815260200160018201805461074c906116e9565b80601f0160208091040260200160405190810160405280929190818152602001828054610778906116e9565b80156107c55780601f1061079a576101008083540402835291602001916107c5565b820191906000526020600020905b8154815290600101906020018083116107a857829003601f168201915b505050505081526020016002820180546107de906116e9565b80601f016020809104026020016040519081016040528092919081815260200182805461080a906116e9565b80156108575780601f1061082c57610100808354040283529160200191610857565b820191906000526020600020905b81548152906001019060200180831161083a57829003601f168201915b50505050508152602001600382018054610870906116e9565b80601f016020809104026020016040519081016040528092919081815260200182805461089c906116e9565b80156108e95780601f106108be576101008083540402835291602001916108e9565b820191906000526020600020905b8154815290600101906020018083116108cc57829003601f168201915b50505050508152602001600482015481526020016005820160009054906101000a900460ff161515151581526020016005820160019054906101000a900473ffffffffffffffffffffffffffffffffffffffff1673ffffffffffffffffffffffffffffffffffffffff1673ffffffffffffffffffffffffffffffffffffffff168152602001600682015481526020016007820154815250509050919050565b60006109973389898989610dee565b90506000600360008054815260200190815260200160002090508060050160009054906101000a900460ff1615610a03576040517f08c379a00000000000000000000000000000000000000000000000000000000081526004016109fa906117c9565b60405180910390fd5b824210610a45576040517f08c379a0000000000000000000000000000000000000000000000000000000008152600401610a3c90611835565b60405180910390fd5b60005481600001819055508888826001019182610a63929190611a3b565b508686826003019182610a77929190611a3b565b50338160050160016101000a81548173ffffffffffffffffffffffffffffffffffffffff021916908373ffffffffffffffffffffffffffffffffffffffff1602179055508484826002019182610ace929190611a3b565b5082816006018190555060018160050160006101000a81548160ff021916908315150217905550600080815480929190610b0790611b0b565b91905055507f19a8276017fac81b48dd0351fa82b40eaebc2e38ad90313789538ef6e064506b816000015433604051610b41929190611b53565b60405180910390a1505050505050505050565b60008054905090565b565b6002602052816000526040600020602052806000526040600020600091509150505481565b60006001600083815260200190815260200160002090508060050160019054906101000a900473ffffffffffffffffffffffffffffffffffffffff1673ffffffffffffffffffffffffffffffffffffffff163373ffffffffffffffffffffffffffffffffffffffff1614610c2d576040517f08c379a0000000000000000000000000000000000000000000000000000000008152600401610c2490611bc8565b60405180910390fd5b8060050160009054906101000a900460ff1615610c7f576040517f08c379a0000000000000000000000000000000000000000000000000000000008152600401610c7690611c34565b60405180910390fd5b80600601544211610cc5576040517f08c379a0000000000000000000000000000000000000000000000000000000008152600401610cbc90611ca0565b60405180910390fd5b6000816007015411610d0c576040517f08c379a0000000000000000000000000000000000000000000000000000000008152600401610d0390611d0c565b60405180910390fd5b600081600701549050600082600701819055508160050160019054906101000a900473ffffffffffffffffffffffffffffffffffffffff1673ffffffffffffffffffffffffffffffffffffffff166108fc829081150290604051600060405180830381858888f19350505050158015610d89573d6000803e3d6000fd5b507f35ec88416fb8c4e0ad0ee0c23a1aa6c0ff90c9426a895aac02f414a62c420e62838360050160019054906101000a900473ffffffffffffffffffffffffffffffffffffffff1683604051610de193929190611d2c565b60405180910390a1505050565b600080858585858a604051602001610e0a959493929190611dea565b6040516020818303038152906040528051906020012090508091505095945050505050565b60006001600083815260200190815260200160002090508060060154421115610e705760008160050160006101000a81548160ff0219169083151502179055505b80600601544210610eb6576040517f08c379a0000000000000000000000000000000000000000000000000000000008152600401610ead90611e6f565b60405180910390fd5b600034905060008111610efe576040517f08c379a0000000000000000000000000000000000000000000000000000000008152600401610ef590611edb565b60405180910390fd5b80826004016000828254610f129190611749565b9250508190555080826007016000828254610f2d9190611749565b9250508190555080600260003373ffffffffffffffffffffffffffffffffffffffff1673ffffffffffffffffffffffffffffffffffffffff1681526020019081526020016000206000858152602001908152602001600020819055507f54689524e07569c0ca87254312902d6ad3511bf3d0bb30dc6a1f67ae4e3bb53a833383604051610fbc93929190611d2c565b60405180910390a1505050565b6040518061012001604052806000815260200160608152602001606081526020016060815260200160008152602001600015158152602001600073ffffffffffffffffffffffffffffffffffffffff16815260200160008152602001600081525090565b600080fd5b600080fd5b6000819050919050565b61104a81611037565b811461105557600080fd5b50565b60008135905061106781611041565b92915050565b6000602082840312156110835761108261102d565b5b600061109184828501611058565b91505092915050565b6110a381611037565b82525050565b600081519050919050565b600082825260208201905092915050565b60005b838110156110e35780820151818401526020810190506110c8565b60008484015250505050565b6000601f19601f8301169050919050565b600061110b826110a9565b61111581856110b4565b93506111258185602086016110c5565b61112e816110ef565b840191505092915050565b60008115159050919050565b61114e81611139565b82525050565b600073ffffffffffffffffffffffffffffffffffffffff82169050919050565b600061117f82611154565b9050919050565b61118f81611174565b82525050565b6000610120820190506111ab600083018c61109a565b81810360208301526111bd818b611100565b905081810360408301526111d1818a611100565b905081810360608301526111e58189611100565b90506111f4608083018861109a565b61120160a0830187611145565b61120e60c0830186611186565b61121b60e083018561109a565b61122961010083018461109a565b9a9950505050505050505050565b6000806040838503121561124e5761124d61102d565b5b600061125c85828601611058565b925050602061126d85828601611058565b9150509250929050565b600060208201905061128c600083018461109a565b92915050565b6000819050919050565b6112a581611292565b81146112b057600080fd5b50565b6000813590506112c28161129c565b92915050565b6000602082840312156112de576112dd61102d565b5b60006112ec848285016112b3565b91505092915050565b6112fe81611037565b82525050565b600082825260208201905092915050565b6000611320826110a9565b61132a8185611304565b935061133a8185602086016110c5565b611343816110ef565b840191505092915050565b61135781611139565b82525050565b61136681611174565b82525050565b60006101208301600083015161138560008601826112f5565b506020830151848203602086015261139d8282611315565b915050604083015184820360408601526113b78282611315565b915050606083015184820360608601526113d18282611315565b91505060808301516113e660808601826112f5565b5060a08301516113f960a086018261134e565b5060c083015161140c60c086018261135d565b5060e083015161141f60e08601826112f5565b506101008301516114346101008601826112f5565b508091505092915050565b60006020820190508181036000830152611459818461136c565b905092915050565b600080fd5b600080fd5b600080fd5b60008083601f84011261148657611485611461565b5b8235905067ffffffffffffffff8111156114a3576114a2611466565b5b6020830191508360018202830111156114bf576114be61146b565b5b9250929050565b60008060008060008060006080888a0312156114e5576114e461102d565b5b600088013567ffffffffffffffff81111561150357611502611032565b5b61150f8a828b01611470565b9750975050602088013567ffffffffffffffff81111561153257611531611032565b5b61153e8a828b01611470565b9550955050604088013567ffffffffffffffff81111561156157611560611032565b5b61156d8a828b01611470565b935093505060606115808a828b01611058565b91505092959891949750929550565b61159881611174565b81146115a357600080fd5b50565b6000813590506115b58161158f565b92915050565b600080604083850312156115d2576115d161102d565b5b60006115e0858286016115a6565b92505060206115f1858286016112b3565b9150509250929050565b6000806000806000606086880312156116175761161661102d565b5b6000611625888289016115a6565b955050602086013567ffffffffffffffff81111561164657611645611032565b5b61165288828901611470565b9450945050604086013567ffffffffffffffff81111561167557611674611032565b5b61168188828901611470565b92509250509295509295909350565b61169981611292565b82525050565b60006020820190506116b46000830184611690565b92915050565b7f4e487b7100000000000000000000000000000000000000000000000000000000600052602260045260246000fd5b6000600282049050600182168061170157607f821691505b602082108103611714576117136116ba565b5b50919050565b7f4e487b7100000000000000000000000000000000000000000000000000000000600052601160045260246000fd5b600061175482611037565b915061175f83611037565b92508282019050808211156117775761177661171a565b5b92915050565b7f43616d706169676e206578697374730000000000000000000000000000000000600082015250565b60006117b3600f836110b4565b91506117be8261177d565b602082019050919050565b600060208201905081810360008301526117e2816117a6565b9050919050565b7f43616d706169676e20656e646564000000000000000000000000000000000000600082015250565b600061181f600e836110b4565b915061182a826117e9565b602082019050919050565b6000602082019050818103600083015261184e81611812565b9050919050565b600082905092915050565b7f4e487b7100000000000000000000000000000000000000000000000000000000600052604160045260246000fd5b60008190508160005260206000209050919050565b60006020601f8301049050919050565b600082821b905092915050565b6000600883026118f17fffffffffffffffffffffffffffffffffffffffffffffffffffffffffffffffff826118b4565b6118fb86836118b4565b95508019841693508086168417925050509392505050565b6000819050919050565b600061193861193361192e84611037565b611913565b611037565b9050919050565b6000819050919050565b6119528361191d565b61196661195e8261193f565b8484546118c1565b825550505050565b600090565b61197b61196e565b611986818484611949565b505050565b5b818110156119aa5761199f600082611973565b60018101905061198c565b5050565b601f8211156119ef576119c08161188f565b6119c9846118a4565b810160208510156119d8578190505b6119ec6119e4856118a4565b83018261198b565b50505b505050565b600082821c905092915050565b6000611a12600019846008026119f4565b1980831691505092915050565b6000611a2b8383611a01565b9150826002028217905092915050565b611a458383611855565b67ffffffffffffffff811115611a5e57611a5d611860565b5b611a6882546116e9565b611a738282856119ae565b6000601f831160018114611aa25760008415611a90578287013590505b611a9a8582611a1f565b865550611b02565b601f198416611ab08661188f565b60005b82811015611ad857848901358255600182019150602085019450602081019050611ab3565b86831015611af55784890135611af1601f891682611a01565b8355505b6001600288020188555050505b50505050505050565b6000611b1682611037565b91507fffffffffffffffffffffffffffffffffffffffffffffffffffffffffffffffff8203611b4857611b4761171a565b5b600182019050919050565b6000604082019050611b68600083018561109a565b611b756020830184611186565b9392505050565b7f4e6f742063616d706169676e20696e69746961746f7200000000000000000000600082015250565b6000611bb26016836110b4565b9150611bbd82611b7c565b602082019050919050565b60006020820190508181036000830152611be181611ba5565b9050919050565b7f63616d706169676e206973207374696c6c206163746976650000000000000000600082015250565b6000611c1e6018836110b4565b9150611c2982611be8565b602082019050919050565b60006020820190508181036000830152611c4d81611c11565b9050919050565b7f43616d706169676e206973207374696c6c206163746976650000000000000000600082015250565b6000611c8a6018836110b4565b9150611c9582611c54565b602082019050919050565b60006020820190508181036000830152611cb981611c7d565b9050919050565b7f4e6f2066756e647320746f207769746864726177000000000000000000000000600082015250565b6000611cf66014836110b4565b9150611d0182611cc0565b602082019050919050565b60006020820190508181036000830152611d2581611ce9565b9050919050565b6000606082019050611d416000830186611690565b611d4e6020830185611186565b611d5b604083018461109a565b949350505050565b600081905092915050565b82818337600083830152505050565b6000611d898385611d63565b9350611d96838584611d6e565b82840190509392505050565b60008160601b9050919050565b6000611dba82611da2565b9050919050565b6000611dcc82611daf565b9050919050565b611de4611ddf82611174565b611dc1565b82525050565b6000611df7828789611d7d565b9150611e04828587611d7d565b9150611e108284611dd3565b6014820191508190509695505050505050565b7f43616d706169676e2068617320656e6465640000000000000000000000000000600082015250565b6000611e596012836110b4565b9150611e6482611e23565b602082019050919050565b60006020820190508181036000830152611e8881611e4c565b9050919050565b7f57726f6e67204554482076616c75650000000000000000000000000000000000600082015250565b6000611ec5600f836110b4565b9150611ed082611e8f565b602082019050919050565b60006020820190508181036000830152611ef481611eb8565b905091905056fea264697066735822122082916a2fe7829a2eb8409e8773300c9c358b33fd20332c79c5e29d00d3ff41a164736f6c63430008130033",
  "linkReferences": {},
  "deployedLinkReferences": {}
}