{
  "_format": "hh-sol-artifact-1",
  "contractName": "Verification",
  "sourceName": "contracts/Verfication.sol",
  "abi": [
    {
      "inputs": [],
      "stateMutability": "nonpayable",
      "type": "constructor"
    },
    {
      "inputs": [],
      "name": "countFiles",
      "outputs": [
        {
          "internalType": "uint256",
          "name": "",
          "type": "uint256"
        }
      ],
      "stateMutability": "view",
      "type": "function"
    },
    {
      "inputs": [],
      "name": "getFilesCount",
      "outputs": [
        {
          "internalType": "uint256",
          "name": "",
          "type": "uint256"
        }
      ],
      "stateMutability": "view",
      "type": "function"
    },
    {
      "inputs": [
        {
          "internalType": "string",
          "name": "ipfsHash",
          "type": "string"
        }
      ],
      "name": "uploadFile",
      "outputs": [],
      "stateMutability": "nonpayable",
      "type": "function"
    },
    {
      "inputs": [
        {
          "internalType": "string",
          "name": "ipfsHash",
          "type": "string"
        }
      ],
      "name": "verifyFile",
      "outputs": [
        {
          "components": [
            {
              "internalType": "string",
              "name": "ipfsHash",
              "type": "string"
            }
          ],
          "internalType": "struct Verification.File",
          "name": "",
          "type": "tuple"
        }
      ],
      "stateMutability": "view",
      "type": "function"
    }
  ],
  "bytecode": "0x60806040526000805534801561001457600080fd5b50610b35806100246000396000f3fe608060405234801561001057600080fd5b506004361061004c5760003560e01c8063a3322a1214610051578063b02710231461006f578063e37ffc301461009f578063e6896240146100bb575b600080fd5b6100596100d9565b604051610066919061039b565b60405180910390f35b61008960048036038101906100849190610425565b6100e2565b604051610096919061052c565b60405180910390f35b6100b960048036038101906100b49190610425565b610261565b005b6100c3610369565b6040516100d0919061039b565b60405180910390f35b60008054905090565b6100ea61036f565b600183836040516100fc92919061058d565b908152602001604051809103902060000160405160200161011d91906106b0565b6040516020818303038152906040528051906020012083836040516020016101469291906106ff565b604051602081830303815290604052805190602001201461019c576040517f08c379a00000000000000000000000000000000000000000000000000000000081526004016101939061076f565b60405180910390fd5b600183836040516101ae92919061058d565b90815260200160405180910390206040518060200160405290816000820180546101d7906105d5565b80601f0160208091040260200160405190810160405280929190818152602001828054610203906105d5565b80156102505780601f1061022557610100808354040283529160200191610250565b820191906000526020600020905b81548152906001019060200180831161023357829003601f168201915b505050505081525050905092915050565b6001828260405161027392919061058d565b908152602001604051809103902060000160405160200161029491906106b0565b6040516020818303038152906040528051906020012082826040516020016102bd9291906106ff565b6040516020818303038152906040528051906020012014610313576040517f08c379a000000000000000000000000000000000000000000000000000000000815260040161030a906107db565b60405180910390fd5b60006001838360405161032792919061058d565b90815260200160405180910390209050828282600001918261034a9291906109cc565b50600160008082825461035d9190610acb565b92505081905550505050565b60005481565b6040518060200160405280606081525090565b6000819050919050565b61039581610382565b82525050565b60006020820190506103b0600083018461038c565b92915050565b600080fd5b600080fd5b600080fd5b600080fd5b600080fd5b60008083601f8401126103e5576103e46103c0565b5b8235905067ffffffffffffffff811115610402576104016103c5565b5b60208301915083600182028301111561041e5761041d6103ca565b5b9250929050565b6000806020838503121561043c5761043b6103b6565b5b600083013567ffffffffffffffff81111561045a576104596103bb565b5b610466858286016103cf565b92509250509250929050565b600081519050919050565b600082825260208201905092915050565b60005b838110156104ac578082015181840152602081019050610491565b60008484015250505050565b6000601f19601f8301169050919050565b60006104d482610472565b6104de818561047d565b93506104ee81856020860161048e565b6104f7816104b8565b840191505092915050565b6000602083016000830151848203600086015261051f82826104c9565b9150508091505092915050565b600060208201905081810360008301526105468184610502565b905092915050565b600081905092915050565b82818337600083830152505050565b6000610574838561054e565b9350610581838584610559565b82840190509392505050565b600061059a828486610568565b91508190509392505050565b7f4e487b7100000000000000000000000000000000000000000000000000000000600052602260045260246000fd5b600060028204905060018216806105ed57607f821691505b602082108103610600576105ff6105a6565b5b50919050565b600082825260208201905092915050565b60008190508160005260206000209050919050565b60008154610639816105d5565b6106438186610606565b9450600182166000811461065e5760018114610674576106a7565b60ff1983168652811515602002860193506106a7565b61067d85610617565b60005b8381101561069f57815481890152600182019150602081019050610680565b808801955050505b50505092915050565b600060208201905081810360008301526106ca818461062c565b905092915050565b60006106de8385610606565b93506106eb838584610559565b6106f4836104b8565b840190509392505050565b6000602082019050818103600083015261071a8184866106d2565b90509392505050565b7f46696c65204e6f7420466f756e64000000000000000000000000000000000000600082015250565b6000610759600e83610606565b915061076482610723565b602082019050919050565b600060208201905081810360008301526107888161074c565b9050919050565b7f46696c6520416c72656164792045786973747300000000000000000000000000600082015250565b60006107c5601383610606565b91506107d08261078f565b602082019050919050565b600060208201905081810360008301526107f4816107b8565b9050919050565b600082905092915050565b7f4e487b7100000000000000000000000000000000000000000000000000000000600052604160045260246000fd5b60006020601f8301049050919050565b600082821b905092915050565b6000600883026108827fffffffffffffffffffffffffffffffffffffffffffffffffffffffffffffffff82610845565b61088c8683610845565b95508019841693508086168417925050509392505050565b6000819050919050565b60006108c96108c46108bf84610382565b6108a4565b610382565b9050919050565b6000819050919050565b6108e3836108ae565b6108f76108ef826108d0565b848454610852565b825550505050565b600090565b61090c6108ff565b6109178184846108da565b505050565b5b8181101561093b57610930600082610904565b60018101905061091d565b5050565b601f8211156109805761095181610617565b61095a84610835565b81016020851015610969578190505b61097d61097585610835565b83018261091c565b50505b505050565b600082821c905092915050565b60006109a360001984600802610985565b1980831691505092915050565b60006109bc8383610992565b9150826002028217905092915050565b6109d683836107fb565b67ffffffffffffffff8111156109ef576109ee610806565b5b6109f982546105d5565b610a0482828561093f565b6000601f831160018114610a335760008415610a21578287013590505b610a2b85826109b0565b865550610a93565b601f198416610a4186610617565b60005b82811015610a6957848901358255600182019150602085019450602081019050610a44565b86831015610a865784890135610a82601f891682610992565b8355505b6001600288020188555050505b50505050505050565b7f4e487b7100000000000000000000000000000000000000000000000000000000600052601160045260246000fd5b6000610ad682610382565b9150610ae183610382565b9250828201905080821115610af957610af8610a9c565b5b9291505056fea26469706673582212204880986f098c38811b18bfea107ee329ec9e36b3e99d4294f275d916b48252a564736f6c63430008130033",
  "linkReferences": {},
  "deployedLinkReferences": {}
}